:100000000C9474000C9495000C9495000C9495003D
:100010000C9495000C9495000C9495000C9495000C
:100020000C9495000C9495000C9495000C949500FC
:100030000C9495000C9495000C9495000C949500EC
:100040000C9495000C9495000C9495000C949500DC
:100050000C9495000C9495000C9495000C949500CC
:100060000C9495000C9495000C9495000C949500BC
:100070000C9495000C9495000C9495000C949500AC
:100080000C9495000C9495000C9495000C9495009C
:100090000C9495000C9495000C9495000C9495008C
:1000A0000C9495000C9495000C9495000C9495007C
:1000B0000C9495000C9495000C9495000C9495006C
:1000C0000C9495000C9495000C9495000C9495005C
:1000D0000C9495000C9495000C9495000C9495004C
:1000E0000C9495000C94650111241FBECFEFD1E252
:1000F000DEBFCDBF00E00CBF12E0A0E0B2E0E6EE54
:10010000FAE000E00BBF02C007900D92AA31B107E0
:10011000D9F722E0AAE1B2E001C01D92A232B207F3
:10012000E1F70E94B8010C9471050C940000AF92A5
:10013000BF92CF92DF92EF92FF920F931F93CF93D4
:10014000DF936C01E3E0F0E040E084E0E82EF12C86
:1001500020E030E0A12CB12CA1E0B0E0CD010E2CCC
:1001600001C0880F0A94EAF7809582B98FE891E080
:100170000197F1F700C0000090B19F709095BF010A
:10018000635071098D0102C0000F111F6A95E2F7DB
:10019000592F517090FF02C0A02AB12A60911A0213
:1001A00070911B020623172381E0012B09F480E0E4
:1001B000581751F08601020F131F842F880F852BCB
:1001C000E80188832F5F3F4F8F0102501109ED0135
:1001D00002C0CC0FDD1F0A95E2F78E0191FB552777
:1001E00050F991FF02C0AC2ABD2A0623172381E0F3
:1001F000012B09F480E0581759F08601020F131FF4
:1002000081E0840F880F852BE80188832F5F3F4FA3
:100210008F0101501109ED0102C0CC0FDD1F0A95BD
:10022000E2F78E0192FB552750F992FF02C0AC2AEB
:10023000BD2A0623172381E0012B09F480E058171B
:1002400059F08601020F131F82E0840F880F852B5F
:10025000E80188832F5F3F4F8D010E2E02C0000FF3
:10026000111F0A94E2F793FB552750F993FF02C040
:10027000A02AB12A6023712381E0672B09F480E072
:10028000581751F0B601620F731F8E2F880F852B00
:10029000EB0188832F5F3F4FDFEFED1AFD0A4C5FC4
:1002A0004F773496403109F059CFB0921B02A0929B
:1002B0001A02822FDF91CF911F910F91FF90EF9043
:1002C000DF90CF90BF90AF9008958A3049F0909121
:1002D000C00095FFFCCF8093C60080E090E00895B9
:1002E0009091C00095FFFCCF9DE09093C600EFCFAA
:1002F0009093C5008093C40086E08093C20088E993
:100300008093C10008959091C00095FFFCCF809329
:10031000C60008958091C00087FFFCCF8091C60081
:1003200008958091C000881F8827881F0895FC01C8
:100330002081222351F031969091C00095FFFCCF8F
:100340002093C60021912111F7CF089580E092E01B
:1003500090931F0280931E021092C50082E3809347
:10036000C40086E08093C20088E98093C1000895AC
:10037000CF93DF93CDB7DEB760970FB6F894DEBFAB
:100380000FBECDBF0E94A60180EF81B98FE082B978
:10039000CC24C394D12C0EE0E02E02E0F02E63E0DA
:1003A00070E030E0B4E08B2E912C80E090E0E0E053
:1003B000F0E0A601082C01C0440F0A94EAF740952A
:1003C00042B9AFE8B1E01197F1F700C0000020B1E9
:1003D0002F702095AB0143505109860102C0000FD8
:1003E000111F4A95E2F7B22FB170AB2E20FF02C069
:1003F000E02BF12B40911A0250911B02042315238C
:10040000BB24B394012B09F4B12CAB1461F001E0CF
:1004100010E00C0F1D1F080F191FB32EBB0CBA28BC
:10042000D801BC9201968B0102501109D60102C07D
:10043000AA0FBB1F0A95E2F78D0121FBAA24A0F8A1
:1004400021FF02C0EA2BFB2B04231523BB24B3940A
:10045000012B09F4B12CAB1471F001E010E00C0F8A
:100460001D1F080F191FBB24B394B30EBB0CBA2871
:10047000D801BC9201968B0101501109D60102C02E
:10048000AA0FBB1F0A95E2F78D0122FBAA24A0F850
:1004900022FF02C0EA2BFB2B04231523BB24B394B9
:1004A000012B09F4B12CAB1471F001E010E00C0F3A
:1004B0001D1F080F191FA2E0BA2EB30EBB0CBA28DD
:1004C000D801BC9201968601062E02C0000F111FB2
:1004D0000A94E2F723FBBB24B0F823FF02C0E02B11
:1004E000F12B4023512321E0452B09F420E0B216E3
:1004F00061F041E050E04C0F5D1F480F591F262F5F
:10050000220F2B29DA012C930196BFEF8B1A9B0A3D
:100510003C5F3F776C5F7F4F303109F04ACFF093FB
:100520001B02E0931A02B82E882309F438CF00E0AA
:1005300010E0E1E0F0E0EC0FFD1FE00FF11F808123
:1005400086951F928F93808181701F928F93FF9267
:10055000EF920E94B6020F5F1F4F0F900F900F9007
:100560000F900F900F900B1520F319CFCF93DF93BF
:10057000CDB7DEB7AE014A5F5F4FFA01619171916D
:10058000AF0180911E0290911F020E94CA02DF916A
:10059000CF9108952F923F924F925F926F927F92E8
:1005A0008F929F92AF92BF92CF92DF92EF92FF9283
:1005B0000F931F93CF93DF93CDB7DEB72C970FB672
:1005C000F894DEBF0FBECDBF7C016B018A01FC0138
:1005D00017821682838181FFBDC1CE0101964C0135
:1005E000F7019381F60193FD859193FF81916F014E
:1005F000882309F4ABC1853239F493FD859193FFCB
:1006000081916F01853229F4B70190E00E94DB04EB
:10061000E7CF512C312C20E02032A0F48B3269F04E
:1006200030F4803259F0833269F420612CC08D326D
:1006300039F0803339F4216026C02260246023C061
:10064000286021C027FD27C030ED380F3A3078F4FC
:1006500026FF06C0FAE05F9E300D1124532E13C012
:100660008AE0389E300D1124332E20620CC08E3269
:1006700021F426FD6BC1206406C08C3611F420687D
:1006800002C0883641F4F60193FD859193FF819174
:100690006F018111C1CF982F9F7D9554933028F41D
:1006A0000C5F1F4FFFE3F9830DC0833631F08337B2
:1006B00071F0833509F05BC022C0F8018081898325
:1006C0000E5F1F4F44244394512C540115C0380130
:1006D000F2E06F0E711CF801A080B18026FF03C00C
:1006E000652D70E002C06FEF7FEFC5012C870E947F
:1006F000D0042C0183012C852F77222E17C03801BE
:10070000F2E06F0E711CF801A080B18026FF03C0DB
:10071000652D70E002C06FEF7FEFC5012C870E944E
:10072000C5042C012C852068222E830123FC1BC0CC
:10073000832D90E048165906B0F4B70180E290E0AE
:100740000E94DB043A94F4CFF50127FC859127FE43
:1007500081915F01B70190E00E94DB0431103A946F
:10076000F1E04F1A51084114510471F7E5C0843685
:1007700011F0893639F5F80127FF07C060817181D2
:10078000828193810C5F1F4F08C060817181072EA9
:10079000000C880B990B0E5F1F4F2F76722E97FF60
:1007A00009C090958095709561957F4F8F4F9F4FB1
:1007B0002068722E2AE030E0A4010E941305A82EC2
:1007C000A81844C0853729F42F7EB22E2AE030E0E5
:1007D00025C0F22FF97FBF2E8F36C1F018F488356F
:1007E00079F0B4C0803719F0883721F0AFC02F2FCF
:1007F0002061B22EB4FE0DC08B2D8460B82E09C0CE
:1008000024FF0AC09F2F9660B92E06C028E030E072
:1008100005C020E130E002C020E132E0F801B7FE7F
:1008200007C060817181828193810C5F1F4F06C078
:100830006081718180E090E00E5F1F4FA4010E94F3
:100840001305A82EA818FB2DFF777F2E76FE0BC070
:10085000372D3E7FA51450F474FE0AC072FC08C008
:10086000372D3E7E05C0BA2C372D03C0BA2C01C0EF
:10087000B52C34FF0DC0FE01EA0DF11D80818033DF
:1008800011F4397E09C032FF06C0B394B39404C09A
:10089000832F867809F0B39433FD13C030FF06C070
:1008A0005A2CB31418F4530C5B18B32CB31468F41B
:1008B000B70180E290E03C870E94DB04B3943C8562
:1008C000F5CFB31410F43B1801C0312C34FF12C023
:1008D000B70180E390E03C870E94DB043C8532FF57
:1008E00017C031FD03C088E790E002C088E590E0C2
:1008F000B7010CC0832F867859F031FF02C08BE21C
:1009000001C080E237FD8DE2B70190E00E94DB0478
:10091000A51438F4B70180E390E00E94DB045A94F8
:10092000F7CFAA94F401EA0DF11D8081B70190E0A0
:100930000E94DB04A110F5CF332009F451CEB7019A
:1009400080E290E00E94DB043A94F6CFF7018681C2
:10095000978102C08FEF9FEF2C960FB6F894DEBF01
:100960000FBECDBFDF91CF911F910F91FF90EF9000
:10097000DF90CF90BF90AF909F908F907F906F90BF
:100980005F904F903F902F900895FC01059061502B
:1009900070400110D8F7809590958E0F9F1F089595
:1009A000FC016150704001900110D8F7809590953E
:1009B0008E0F9F1F08950F931F93CF93DF93FB011B
:1009C000238121FD03C08FEF9FEF28C022FF16C0B7
:1009D00046815781248135814217530744F4A08111
:1009E000B1819D012F5F3F4F318320838C932681FE
:1009F00037812F5F3F4F3783268310C0EB01092FCC
:100A0000182F0084F185E02D1995892BE1F68E8150
:100A10009F8101969F838E83812F902FDF91CF91AD
:100A20001F910F910895FA01AA27283051F1203122
:100A300081F1E8946F936E7F6E5F7F4F8F4F9F4F72
:100A4000AF4FB1E03ED0B4E03CD0670F781F891FB4
:100A50009A1FA11D680F791F8A1F911DA11D6A0F82
:100A6000711D811D911DA11D20D009F468943F9135
:100A70002AE0269F11243019305D3193DEF6CF0134
:100A80000895462F4770405D4193B3E00FD0C9F7FA
:100A9000F6CF462F4F70405D4A3318F0495D31FD67
:100AA0004052419302D0A9F7EACFB4E0A6959795BA
:100AB000879577956795BA95C9F700976105710590
:100AC00008959B01AC010A2E0694579547953795DA
:100AD0002795BA95C9F7620F731F841F951FA01D34
:060AE0000895F894FFCF19
:100AE6000000000200000000650100000000653AF9
:0A0AF6005B25642C2025645D0A00D6
:00000001FF
